:0400000003EF25F0F5
:08000800046ED8CF05F0E0CF33
:1000100006F00001E9CF0CF0EACF07F0E1CF08F0DD
:10002000E2CF09F0D9CF0AF0DACF0BF0F3CF12F01C
:10003000F4CF13F0FACF14F000C00EF001C00FF0AF
:1000400002C010F003C011F0F2AA2AEF00F0F2B4DF
:1000500053EF01F0F0A830EF00F0F0B282EF01F0C2
:100060009DAA36EF00F09EBA9DEF01F00EC000F0A1
:100070000FC001F010C002F011C003F00CC0E9FF86
:1000800007C0EAFF078E08C0E1FF09C0E2FF0AC00F
:10009000D9FF0BC0DAFF12C0F3FF13C0F4FF14C086
:1000A000FAFF045006C0E0FF05C0D8FF1000F2CFF1
:1000B0000DF0F29EF76AC80FF66E000EF7220900E7
:1000C000F5500DBEF28E120000001F003B005A00DA
:1000D00078009700B500D400F300110130014E0103
:1000E000F2CF0DF0F29EF76AFA0FF66E000EF722CD
:1000F0000900F5500DBEF28E12002200F2CF0DF075
:10010000F29EF76A160FF66E010EF7220900F550FF
:100110000DBEF28E12000D00F2CF0DF0F29EF76AC6
:10012000320FF66E010EF7220900F5500DBEF28E69
:1001300012007C00F2CF0DF0F29EF76A4E0FF66EC1
:10014000010EF7220900F5500DBEF28E120041415A
:100150000000F2CF0DF0F29EF76A6C0FF66E010E02
:10016000F7220900F5500DBEF28E12004241000048
:10017000F2CF0DF0F29EF76A8A0FF66E010EF722AB
:100180000900F5500DBEF28E1200434C494D41005E
:10019000F2CF0DF0F29EF76AAA0FF66E010EF7226B
:1001A0000900F5500DBEF28E1200534554525443CF
:1001B0000000F2CF0DF0F29EF76ACC0FF66E010E42
:1001C000F7220900F5500DBEF28E1200494E495437
:1001D0004D454D00F2CF0DF0F29EF76AEE0FF66E30
:1001E000010EF7220900F5500DBEF28E1200434EAB
:1001F000554D53525600415445300D0041542B4348
:100200004D47463D310D000041542B434D45453D82
:10021000320D000041542B43504D533D224D452299
:100220000D0041542B435343533D2247534D220D60
:10023000000041542B43534D503D31372C3136375C
:100240002C302C3234310D0041542B434D47443D6A
:1002500025640D0041542B434D47443D25640D005A
:10026000417C547C25737C2563256300417C547C50
:1002700025737C2563256300417C487C25737C25A0
:1002800063256300417C487C25737C2563256300DE
:100290004553547C25737C25737C4F4E7C25697CAB
:1002A00025632563000001016051D8B46107600730
:1002B000605308E1615306E15FC161F15EC160F125
:1002C000010E736F6451D8B465076407645308E185
:1002D000655306E167C165F166C164F1010E746F93
:1002E0006851D8B469076807685308E1695306E1A3
:1002F000170E696F700E686F010E756FF294000132
:1003000036EF00F0010159B106D0F19859815C2B0C
:10031000D8B45D2B02D0F1885991F092000136EFEC
:1003200000F09EAAFED7ABCF16F0AECF01F016A21A
:1003300002D0AB98AB88B0EF01F09EAA22D00101A9
:10034000173D01D01DD0036A1751170FE96E000E3B
:100350000320EA6EEACF22F4E9CF21F40001E1D7CD
:1003600022C4EAFF21C4E9FF01C0EFFF0101172BFE
:10037000036A1751170FE96E000E0320EA6EEF6A49
:1003800000019E9A36EF00F041542B434D47523DF9
:1003900025642C300D0041542B434D47533D2225FD
:1003A00073220D004553547C25737C25737C4D4589
:1003B0004D46554C4C7C256C647C256325630000C0
:1003C0004553547C25737C25737C54454D507C25C6
:1003D00030322E31667C2563256300005254417C07
:1003E000253034757C25632563005254417C2530CB
:1003F00034757C25632563005254417C2530347567
:100400007C25632563005254417C253034757C255E
:1004100063256300030E0301576F180E566F556B6B
:10042000320E546F586B5851360808E3562BD8B427
:10043000572B542BD8B4552B582BF5D70001ADEFC3
:1004400025F003019C6B9C5107080DE3D8909B336A
:1004500002E28C9401D08C84959495928C82959232
:100460008C929C2BF0D70001000C95908C8099C346
:100470009BF3E7DF9AC39BF3E4DF95908C90000C2D
:1004800095908C807EC39BF3DCDF95840400000094
:1004900003017F6B7F51070813E3958483B402D077
:1004A000D89001D0D880803395928C82040000D0FF
:1004B000000095928C92040000D000007F2BEAD7B8
:1004C00095908C9080C301F00001000C95908C9069
:1004D000040000D0000095928C928E0E0301996F5B
:1004E0009A6B0001C2DF900E0301996FA40E9A6F00
:1004F0000001BBDF810E03017E6F0001C1DF01C07F
:1005000054F303015451800B06E0800E996F9A6BEF
:100510000001ABDF03010001C1EF25F094808B9255
:100520009492040000008B829492040000008B904F
:100530009490040000008B929492040000D000007C
:100540008B829492040000009480040000008B923F
:100550009492000C94808B929492040000D000003E
:100560000301546B545108080CE38B8294920400ED
:1005700000D000008B929492040000D00000542B15
:10058000F1D70001CBDFDEEF02F0030EEA6E740E4E
:10059000E96EEF5011E0020E016EBF0E006E040016
:1005A000002EFDD7012EF9D7960E006E002EFED735
:1005B00000D00400EF2EEFD7000CCCD7140E0301AF
:1005C000746F0001E2DFC3EF25F09388938AC5EFD3
:1005D00025F06CC303F003016BC3E9FF6CC3EAFFB2
:1005E000EF5239E06CC370F36BC36FF36EC372F3F9
:1005F0006DC371F372C303F071C3E9FF72C3EAFF05
:10060000EF5216E06FC3E9FF70C3EAFFEFCF73F359
:1006100072C303F071C3E9FF72C3EAFFEF50735D69
:1006200007E16F2BD8B4702B712BD8B4722BE2D7A3
:1006300072C303F071C3E9FF72C3EAFFEF5205E131
:100640006BC301F06CC302F009D06B2BD8B46C2BD8
:100650000001BFD70301000E016E026E00013BEFE7
:1006600003F003016C6B170E6B6F66C36EF365C30B
:100670006DF30001AED702C06AF301C069F3030154
:1006800069516A1105E069C301F06AC302F010D034
:10069000675168110CE06751D8B468076707040018
:1006A0006751681104E1000E016E026E01D0DAD7C5
:1006B0000001000C9D9A0A0E0301546F5407010EAD
:1006C000666F230E656F130E686F880E676F0001EB
:1006D000C8DF02C056F301C055F30301555304E1CE
:1006E000565302E15453EAE19D8A0001E0EF03F022
:1006F0000301656B9D9A0101176B176A0301653D44
:1007000001D00AD0036A6551170FE96E000E03206D
:10071000EA6EEF6A652BF3D79D8A0001000C090091
:10072000F5520DE0F6CF54F3F7CF55F3F5509EA8F0
:10073000FED7AD6E54C3F6FF55C3F7FFF0D7000CDC
:1007400056C357F303015707010E666F200E656FFE
:1007500055C368F354C367F3000183DF02C059F344
:1007600001C058F30301585304E1595302E15753B0
:10077000EAE10001000C96928D92060E0301546F7F
:10078000FA0E746F000101DF0301542FF9D796921E
:100790008D82060E546FFA0E746F0001F6DE0301AF
:1007A000542FF9D796928D920C0E546FFA0E746FE7
:1007B0000001EBDE0301542FF9D7040000017AD7C2
:1007C00097DF410E9EA8FED7AD6E540E9EA8FED7B1
:1007D000AD6E0D0E9EA8FED7AD6E010E0301666FC5
:1007E000200E656F1F0E686F400E676F000139DFC6
:1007F00002C055F301C054F30301545310E15553A3
:100800000EE1410E9EA8FED7AD6E540E9EA8FED7F7
:10081000AD6E0D0E9EA8FED7AD6E0001DED70001B5
:1008200067DFF60EF66E010EF76E79DF070E030135
:10083000556FD00E546F050E566F000181DF58DFE3
:10084000FC0EF66E010EF76E6ADF070E0301556FA0
:10085000D00E546F050E566F000172DF49DF080E8F
:10086000F66E020EF76E5BDF070E0301556FD00EBA
:10087000546F050E566F000163DF3ADF140EF66EFB
:10088000020EF76E4CDF070E0301556FD00E546F4A
:10089000050E566F000154DF2BDF220EF66E020E9E
:1008A000F76E3DDF070E0301556FD00E546F050E36
:1008B000566F000145DF1CDF320EF66E020EF76E3A
:1008C0002EDF070E0301556FD00E546F050E566FC5
:1008D000000136DF0DDF010E016E000C0900F6CFBE
:1008E00066F3F7CF67F3F5509EA8FED7AD6E66C3EB
:1008F000F6FF67C3F7FF0301652F01D002D00001A7
:10090000EDD70001000C04010751016A065D03E206
:1009100006C400F00CD0006A080E086F06370036D7
:100920000751005CD8B0006E0136082FF7D70001E0
:10093000000C200E030163A9300E646F62C300F047
:1009400062AF07D0001E002A00C062F32D0E646F54
:10095000638F015062C306F4640E0401076F000147
:10096000D2DF00C062F3300E01240301656F62C361
:1009700006F40A0E0401076F0001C5DF300E0024E3
:100980000301676F300E0124666F64C300F063A734
:1009900002D063AF639563B90BD063AF22D063B568
:1009A00020D000C065F363B31CD000C066F319D03B
:1009B000300E655D16E100C065F3200E646F63A71D
:1009C00004D06395638363AF6393300E665D09E182
:1009D00000C066F3200E656F63A7F7D7639363AF1C
:1009E000639163A504D064519EA8FED7AD6E63A346
:1009F00004D065519EA8FED7AD6E63A104D06651A8
:100A00009EA8FED7AD6E67519EA8FED7AD6E0001C1
:100A1000000C010E0301546F5451320824E300010D
:100A200067DE540EF66E020EF76E080E0301656F58
:100A3000000154DF54C362F31F0E0301636F000112
:100A400078DF0D0E9EA8FED7AD6E010E0301666F16
:100A5000200E656F030E686FE80E676F000101DE00
:100A60000301542BD9D70001EEEF25F00301FE6BF3
:100A7000FE51A4080AE3036AFE51FC25E96EFD510C
:100A80000320EA6EEF6AFE2BF3D70001000C006A28
:100A9000016A04010451D89005B1002600320132E8
:100AA00005B300260032013205B5002600320132BE
:100AB00005B700260032013205B9002600320132A6
:100AC00005BB00260032013205BD0026003201328E
:100AD00005BF0026003201320001000C0401026B48
:100AE000006B0A0E016F0301FF6BFD51FE1103E164
:100AF000000E016EE2D004010251022B036A0301D1
:100B0000FD25E96EFE510320EA6EEFCF03F40401E8
:100B100003512D080FE1010E006F0251022B036AF1
:100B20000301FD25E96EFE510320EA6EEFCF03F4C9
:100B300004010FD003512B080CE10251022B036A70
:100B40000301FD25E96EFE510320EA6EEFCF03F4A9
:100B5000040103512F08D8B0A6D003513908D8A0FA
:100B6000A2D0035130082AE1036A02510301FD2596
:100B7000E96EFE510320EA6EEF5078080FE0036A39
:100B8000040102510301FD25E96EFE510320EA6EC6
:100B9000EF505808D8B402D0040110D0100E040150
:100BA000016F022B0251022B036A0301FD25E96E3E
:100BB000FE510320EA6EEFCF03F4040101510A084D
:100BC00021E103512F081DE2035139081AE30A0EEF
:100BD000046FFFC305F400015ADF300E0401035D0A
:100BE00001240301FF6F04010251022B036A030178
:100BF000FD25E96EFE510320EA6EEFCF03F40401F8
:100C0000E0D751D0015110084EE10351600806E2CF
:100C100003517A0803E30351DF0B01D00351036F43
:100C200003512F0803E20351390806E2035140083B
:100C30003AE20351460837E303512F080FE203510C
:100C400039080CE30301FF390401046FF00E0417A7
:100C5000300E035D04250301FF6F0CD00301FF3943
:100C60000401046FF00E0417410E035D0A0F042502
:100C70000301FF6F04010251022B036A0301FD25EA
:100C8000E96EFE510320EA6EEFCF03F40401035135
:100C9000600806E203517A0803E30351DF0B01D039
:100CA0000351036FBDD7002D05D001510A0802E1A1
:100CB0000301FF6D0301FFC301F00001000C47C1F8
:100CC000EAFF46C1E9FF04010DC4EFFFE92AD8B4E9
:100CD000EA2AEF6A0101462BD8B4472B0001000C29
:100CE000200E0301FEA9300E0401006FFDC300F0C9
:100CF00000AE09D0001E002A00C0FDF32D0E006FCB
:100D00000301FE8F04010150FDC306F4640E076F5A
:100D10000001F9DD00C0FDF3300E01240401016F74
:100D2000FDC306F40A0E076F0001EDDD300E00244E
:100D30000401036F300E0124026F00C400F00301B0
:100D4000FEA702D0FEAFFE95FEB90BD0FEAF2CD0B1
:100D5000FEB52AD000C001F4FEB326D000C002F4D4
:100D600023D0300E0401015DD8B402D003011CD0A1
:100D700000C001F4200E006F0301FEA704D0FE9511
:100D8000FE83FEAFFE93300E0401025DD8B402D0A4
:100D900003010AD000C002F4200E016F0301FEA778
:100DA000F2D7FE93FEAFFE91FEA505D000C40DF470
:100DB000000185DF0301FEA305D001C40DF400018D
:100DC0007EDF0301FEA104D002C40DF4000177DF31
:100DD00003C40DF4000173DF000C0101816B010EEF
:100DE0000301FE6F7F0EFD6F000178DE01C0FCF392
:100DF0000301FC2BFC516308D8A0FC6B010E010120
:100E0000476F7F0E466FFCC3FDF3010E0301FE6FBB
:100E1000000166DF000C7FC380F303018039006EA0
:100E20000F0E001600500A0DF3CF7FF38039006ECD
:100E3000F00E00160050003A0F0E001600507F27EB
:100E40007FC301F00001000C03019B6B9C6B010E42
:100E50009D6FDA6AD96A030EA06F930E9F6F030E1F
:100E6000EA6E970EE96EA0C3E2FF9FC3E1FF9DC348
:100E70009EF3D890E550EE02F3509B23F4509C2350
:100E80009E2FF7D79BC3DEFF9CC39BF39C6BD8B010
:100E90009C2B9F2BD8B4A02B9D2B9D510508DFE1E7
:100EA0000001000C060E03017A25E96E000E7B217D
:100EB000EA6EECCF85F3ED52EFCF84F3B20E845D92
:100EC000006E070E8559036E005003C001F0026AE0
:100ED000036A03C087F302C086F301C085F300C034
:100EE00084F3EACF89F3E9CF88F3966B956B010E13
:100EF000946F6D0E936F03C09AF302C099F301C013
:100F000098F300C097F300019FDF89C3EAFF88C30D
:100F1000E9FF03C087F302C086F301C085F300C078
:100F200084F3040E03017A25E96E000E7B21EA6E3C
:100F3000010EEF5C006ED89000360050036AF2CFCD
:100F40008AF3F29E000157EC00F00900F5CF03F0A0
:100F500003018ABFF28E8A6F03C08BF3030E7A25DA
:100F6000E96E000E7B21EA6EEF508A27000E8B237C
:100F7000010E8A5D006E000E8B59036E005003C097
:100F800001F0026A036A00508425806F01508521B8
:100F9000816F02508621826F03508721836F060E76
:100FA0007A25E96E000E7B21EA6EECCF85F3ED52D7
:100FB000EFCF84F3B10E845F070E855B8531036E3E
:100FC0008431026E033202323F0E031602C000F07B
:100FD00003C001F0026A036A005080270150812398
:100FE0000250822303508323040E7A25E96E000EFB
:100FF0007B21EA6EEF5002081AE2060E7A25E96EAE
:10100000000E7B21EA6EECCF85F3ED52EFCF84F337
:10101000030E8417856B84530AE1855308E1010EA2
:101020008027D8B0812BD8B4822BD8B4832B020E62
:101030007A25E96E000E7B21EA6EEF50876B866B96
:10104000856B846F010E7A25E96E000E7B21EA6EB6
:10105000EF508B6B8A6B896B886F7AC3E9FF7BC318
:10106000EAFFEFCF8CF3EACF8EF3E9CF8DF3966BE7
:10107000956B946B180E936F83C39AF382C399F3A5
:1010800081C398F380C397F30001DEDE8EC3EAFFCD
:101090008DC3E9FF03018C510026000E01220222BC
:1010A0000322EACF90F3E9CF8FF3966B956B946BA5
:1010B0003C0E936F03C09AF302C099F301C098F3FA
:1010C00000C097F30001C0DE90C3EAFF8FC3E9FFC1
:1010D000030188510026895101228A5102228B5135
:1010E000032203C08BF302C08AF301C089F300C05E
:1010F00088F3EACF92F3E9CF91F3966B956B946BFB
:101100003C0E936F03C09AF302C099F301C098F3A9
:1011100000C097F3000198DE92C3EAFF91C3E9FF94
:101120000050030184257C6F015085217D6F0250A2
:1011300086217E6F035087217F6F7CC300F07DC3C3
:1011400001F07EC302F07FC303F000014FEF09F00E
:10115000870E03017E6F000140EC02F001C07AF3BC
:1011600001C07FF358DE01C06FF3890E03017E6F6B
:10117000000140EC02F001C07AF301C07FF34BDEC6
:1011800001C070F38D0E03017E6F000140EC02F090
:1011900001C07AF301C07FF33EDE01C071F38B0E14
:1011A00003017E6F000140EC02F001C07AF301C040
:1011B0007FF331DE01C06EF3850E03017E6F000107
:1011C00040EC02F001C07AF301C07FF324DE01C0DD
:1011D0006BF3830E03017E6F000140EC02F001C04F
:1011E0007AF301C07FF317DE01C06CF3810E0301B7
:1011F0007E6F000140EC02F001C07AF301C07FF382
:101200000ADE01C06DF3010E0101476F320E466F19
:1012100071C3FDF3010E0301FE6F000161DD70C3B8
:10122000FDF3010E0301FE6F00015ADD6FC3FDF3F4
:10123000010E0301FE6F000153DD010E0101476F36
:101240003C0E466F6BC3FDF3010E0301FE6F000100
:1012500047DD3A0E04010D6F000131DD6CC3FDF373
:10126000010E0301FE6F00013BDD6BC372F36CC323
:1012700073F36DC374F36FC375F370C376F36EC30A
:1012800077F3D00E03017125786F070E796FD8B010
:10129000792B030E7B6F720E7A6F000103D6000C60
:1012A0000900F6CF61F3F7CF62F3F5CF0DF407DD58
:1012B00061C3F6FF62C3F7FF0301602F01D002D0C4
:1012C0000001EED70001000CEF520FE0EACFFDF372
:1012D000E9CFFCF3EFCF0DF4F2DCFDC3EAFFFCC372
:1012E000E9FFE92AD8B4EA2AEFD7000CEF5210E060
:1012F000EACF66F3E9CF65F3EF509EA8FED7AD6E57
:1013000066C3EAFF65C3E9FFE92AD8B4EA2AEED743
:10131000000C9EA8FED7AD6ED5EF09F078EC03F077
:10132000960EF66E030EF76E090E0301656F00014F
:101330006EEC04F063C3EAFF62C3E9FFD7DF220E5D
:101340009EA8FED7AD6E0D0E9EA8FED7AD6E960E72
:101350000301646F6407010E666F2E0E656F070E42
:10136000686FD00E676F000131EC03F002C066F3C6
:1013700001C065F30301655304E1665302E1645360
:10138000E9E161C3EAFF60C3E9FF0001AFDF080ED6
:101390000301656FFA0E746F0001C5EC02F00301E2
:1013A000652FF8D71A0E0001B4D778EC03F0000EC1
:1013B000016E026E000CD0500F0BD0A8000ED08032
:1013C000D082D088D886D8880301546F400E556FDC
:1013D000FA0E746F0001C5EC02F00301552FF8D727
:1013E0000001FBDCB5DE020E0101476F270E466FE0
:1013F000900EF66E020EF76E040E0301606F000190
:101400004FDF010EEA6E320EE96E5EDF7C0E0401E4
:101410000D6F000154DC010EEA6E3C0EE96E54DFE4
:10142000990EF66E020EF76E040E0301606F000156
:1014300037DF54C3FDF31F0E0301FE6F000150DCC4
:101440007C0E04010D6F00013ADC7FC10DF437DC26
:1014500080C10DF434DC020E0301616F270E606F52
:10146000010E636F480E626F000158DFF8EF25F040
:10147000800E0301806F0400020E006E002EFED766
:101480007F6B7F51070813E38B9294927E518015F6
:1014900002E0948002D08B909490040000008B8234
:1014A000949204000000D89080337F2BEAD78B926F
:1014B0009492040000009480819182B081818B829B
:1014C0009492040000008B929492000E81B1010E60
:1014D000016E0001000C94808B9294920400000035
:1014E00003017F6B7E6B7F51750811E303E17E5131
:1014F0002F080DE3948082B001D009D00400060EBD
:10150000006E002EFED77E2BD8B47F2BECD70001C7
:10151000000C0301806B7F6B7E6B7E51070812E32A
:10152000D8907F3780378B8294920400000094809B
:1015300082A002D07F8100D08B92949204000000A0
:101540007E2BEBD78B909490040000008B829492BA
:10155000040000D000008B9294920400000094805C
:101560007E6B7E51070812E3D8907F3780378B82DD
:10157000949204000000948082A002D07F8100D069
:101580008B929492040000007E2BEBD79480040091
:1015900000008B829492040000D000008B92949201
:1015A0007FC301F080C302F00001000C8EEC02F05A
:1015B000030E03017E6F00015BDF03017B9101B02D
:1015C0007B817BA104D0000E016E026E0CD0000165
:1015D00082DF9FDF02C07DF301C07CF303017CC387
:1015E00001F07DC302F000018BEF11F08EEC02F0F0
:1015F000050E03017E6F00013BDF03017B9101B00B
:101600007B817BA104D0000E016E026E0CD0000124
:1016100062DF7FDF02C07DF301C07CF303017CC386
:1016200001F07DC302F0000191EF11F08E0E006E0B
:10163000A6C301F0A5C302F0036A015209E102C08A
:1016400001F0026A080E005E015202E1006A08D051
:10165000D89001BE04D0023601360006F9D7019EAB
:10166000000C04010D51D8B471D0006E1151D8B4E2
:101670006DD0002604E3810E002668E204D07F0EC0
:10168000005E64E363E00EC415F41251151B0E8F67
:10169000128F10511403F4CF17F40F511303F4CF2A
:1016A00003F0F3CF16F41403F3501727F450162366
:1016B000000E032210511303F3501727F450162382
:1016C000000E026A032202220E511403F350162761
:1016D000F4500322000E02220E511303F35003268E
:1016E000F4500222000E016A012210511203F3503D
:1016F0001627F4500322000E022201220F5112037A
:10170000F3500326F4500222000E01220E51120360
:10171000F3500226F4500122002A01BE05D01637EC
:101720000336023601360006000E16AF0AD0032A31
:1017300002220122015005E1025003E1035001E1C0
:10174000002A15BF018E15AF019E04D0006A016A00
:10175000026A036A0001000C800ED8A202D00301C5
:10176000AA1B0301AF6BB06BA6C3AEF3AA51AE1BAD
:10177000A551D8B4DFD0AD6F006EA951D8B4E3D075
:10178000AD5FD8B483D03EE3AAC3B3F3B38FABC38A
:10179000B2F3ACC3B1F3B06BD890B333B233B1335F
:1017A000B033AD2FF8D7AEAF03D0AF81E0D0AF915B
:1017B000AD91AF89030EEA6EA80EE96EEBD0AF993A
:1017C000AEBF0AD0ADA113D0B333B233B133B0330F
:1017D000002AD8B4C7D00BD0B3BF0CD0D890B03744
:1017E000B137B237B3370006D8B4BCD0F5D7AF8D18
:1017F0006DD0AF9DA6C3AEF3A6AF02D0B38FABD072
:10180000B39FA9D0A9C3ADF3A9C300F0A551AD5FA3
:10181000A6C3B3F3B38FA7C3B2F3A8C3B1F3B06B3E
:10182000D890B333B233B133B033AD2FF8D7AEAFB6
:1018300003D0AF839CD0AF93AD91AF8B030EEA6E14
:10184000AC0EE96EA7D0AF9BAEBF0AD0ADA113D04E
:10185000B333B233B133B033002AD8B483D00BD012
:10186000B3BF0CD0D890B037B137B237B33700061A
:10187000D8B478D0F5D7AF8F29D0AF9FAAC3AEF335
:10188000AAAF02D0B38F67D0B39F65D0AAC3B3F31A
:10189000B38FABC3B2F3ACC3B1F3AEAF04D0B39F5D
:1018A000AF8565D0AF95B06BAD91030EEA6EA80E13
:1018B000E96E70D0AEBF1CD0A6C3AEF3ADA106D00A
:1018C000B333B233B133B033002A4CE0B0AF0BD0F6
:1018D000B12B09E1B22B07E1B32B05E1B333B233EE
:1018E000B133002A3FE0AFBD84D7AFBFC6D71CD00D
:1018F000800EB31BB3AF04D03AD0AAC3AEF30AD064
:10190000A6C3AEF3B35306E1B25304E1B15302E10F
:10191000006A21D0B3BF08D0D890B037B137B23702
:10192000B337002EF7D71ED0AEAF02D0B38F13D08F
:10193000B39F11D0A9C300F0AAC3B3F3ABC3B2F3F2
:10194000ACC3B1F308D0A5C300F0A6C3B3F3A7C3DB
:10195000B2F3A8C3B1F3B3C301F0B2C302F0B1C391
:1019600003F034D0006A016A026A036A2FD0B06BB8
:10197000B11FB21FB31FB01FB02B05E1B12B03E1A4
:10198000B22B01E1B32BAFB112D7AFB354D7AFB580
:1019900089D7B3D7EF50B12705E3B22B03E1B32BBF
:1019A000D8B4AD81ED52EF50B22703E3B32BD8B4D6
:1019B000AD81ED52EF50EFBE01D0800AB327D8B011
:1019C000AD81AFB9FCD6AFBB3ED774D70001000CD8
:1019D00078C37FF303017C517F1B7FAF05D0D89480
:1019E000D89078BFD8802FD078C37FF37BC380F3A3
:1019F0007751805F06E07FAF26D0D850010AD86EBD
:101A000022D07CC380F37851805F06E07FAF1BD08B
:101A1000D850010AD86E17D07DC380F37951805F0A
:101A200006E07FAF10D0D850010AD86E0CD07EC32C
:101A300080F37A51805F06E07FAF05D0D850010A6D
:101A4000D86E01D0D8900001000C006A016A026AC9
:101A5000036A0401156B166B176B186B1451131185
:101A6000121111112CE0200E196FD8900D370E377E
:101A70000F37103715371637173718371451185DC9
:101A800008E11351175D05E11251165D02E1115194
:101A9000155D0FE31151155F1251D8A0123D165F6D
:101AA0001351D8A0133D175F1451D8A0143D185FEF
:101AB000D8800036013602360336192FD6D7040EE9
:101AC000EA6E150EE96E0001000CB60E006E036A98
:101AD000026A016A03017751781179117A1102E1E2
:101AE000006A0DD0D89001BE09D0773778377937A2
:101AF0007A37033602360136002EF4D7019E0001F4
:101B0000B0EF0DF072C37AF371C379F370C378F359
:101B10006FC377F303017E6B7D6B7C6B7B6B000186
:101B200057DF04E1580E016EC5D0C4D06EC310F467
:101B30006DC30FF46CC30EF46BC30DF40401146B8E
:101B4000136B060E126FCC0E116F00017EDF03C007
:101B50007AF302C079F301C078F300C077F3B5D708
:101B600003C076F302C075F301C074F300C073F3D1
:101B70000401106B0F6B0E6B7F0E0D6F76C314F4A8
:101B800075C313F474C312F473C311F4000169DD57
:101B900072C37AF371C379F370C378F36FC377F3C9
:101BA00003C07EF302C07DF301C07CF300C07BF371
:101BB0000FDF01E204E1300E016E7CD07BD0040126
:101BC000106B0F6B700E0E6F810E0D6F76C314F4D9
:101BD00075C313F474C312F473C311F4000141DD2F
:101BE00072C37AF371C379F370C378F36FC377F379
:101BF00003C07EF302C07DF301C07CF300C07BF321
:101C0000E7DE01E204E1310E016E54D053D004014D
:101C1000106B0F6B700E0E6F820E0D6F76C314F487
:101C200075C313F474C312F473C311F4000119DD06
:101C300072C37AF371C379F370C378F36FC377F328
:101C400003C07EF302C07DF301C07CF300C07BF3D0
:101C5000BFDE01E204E1320E016E2CD02BD0040174
:101C6000106B0F6B700E0E6F830E0D6F76C314F436
:101C700075C313F474C312F473C311F40001F1DCDF
:101C800072C37AF371C379F370C378F36FC377F3D8
:101C900003C07EF302C07DF301C07CF300C07BF380
:101CA00097DE01E204E1330E016E04D003D0340E5E
:101CB000016E00D0000C03017E518003F3CF01F0D0
:101CC000F4CF00F08103F35000267F518003F350DE
:101CD0000020026E0001000C080E016E00D08A98F0
:101CE000939800D00000030198378A9AD8B0938A5D
:101CF000D8A0939A938881A8FED7012E01D002D054
:101D00000001ECD700D08A9893980000938A00D005
:101D1000000000D00000938881A8FED7016A00D09F
:101D2000000081BA01808A9893988A9A939A000158
:101D3000000C080E0301846F00C085F3938A00D065
:101D40000000938881A8FED781BAD88081AAD89054
:101D5000013600D093988A98842FF0D7938A00D0C8
:101D600000008A9A8551D8A4939A0000938881A88C
:101D7000FED700D08A98939800D000008A9A939A50
:101D80000001F0EF0EF0938A00D0938800D000009D
:101D90008A9A939A00D08A989398A00E0301986F1C
:101DA00000019ADF81C383F30301846B81C398F33D
:101DB000000192DF80C398F38FDF938A00D093886D
:101DC00000D0000081A8FED78A9A939A00D08A9802
:101DD0009398A10E0301986F00017EDF006AA9D7D6
:101DE00001C082F3939A0000938881A8FED700D0A7
:101DF00000D00000938A00D0030182C301F00001EB
:101E0000000C7AC37FF379C37EF30301816B170E55
:101E1000806F000150DF0150020F0201E46F000EDD
:101E20000220E56F030E03017F6F010E7FC37CF379
:101E30007B6F7D6B7D5116081DE37CC303F07BC374
:101E40007EF37CC37FF3E5C281F3E4C280F300013B
:101E50009ADF7FC3EAFF7EC3E9FF01C0EFFF030102
:101E60007B2BD8B47C2B0201E42BD8B4E52B0301E7
:101E70007D2BE0D70001000C8E0E006E0301775120
:101E8000005E78C302F079C301F0028E005209E0CF
:101E9000D890025202E1015204E002320132002ED7
:101EA000F7D778AF05D0011E021E012AD8B4022A46
:101EB0000001000C0201E65306E1E75304E1000EC5
:101EC000016E026E94D0010EE65D0301776F000E85
:101ED0000201E7590301786F7A6F77C379F3000144
:101EE00090DF04C372F303C371F302C370F301C341
:101EF0006FF310C37AF30FC379F30EC378F30DC3F6
:101F000077F3BADF02C06CF301C06BF3800E0301FC
:101F10006F5D736F510E7059746F010E7159756F4B
:101F2000000E7259766F0201E62D08D0E75306E1E4
:101F30006BC301F06CC302F0020159D0020EE65DE2
:101F4000006E000EE759036E00C06DF303016E6F63
:101F50006EBF48D000D06EC37AF36DC379F3000131
:101F600050DF03017651045D35E30BE17551035DEC
:101F700031E307E17451025D2DE303E10151735D2B
:101F800029E26CC3A6F36BC3A5F3000116EC0BF0BA
:101F9000D89203C0A8F302C0A7F301C0A6F300C003
:101FA000A5F310C3ACF30FC3ABF30EC3AAF30DC379
:101FB000A9F3ACEC0BF003C07AF302C079F301C0D3
:101FC00078F300C077F358DF02C06CF301C06BF305
:101FD00003D0030107D0000103016D51D8B46E078F
:101FE0006D07B6D76BC301F06CC302F002010001AC
:101FF00080EF13F00301A551D8B4A5D0B16FA9515A
:10200000D8B4A1D0B15F05E37F0EB127D8B09BD083
:1020100006D0810EB15FD8A096D0D8B494D0B1C309
:1020200000F0016A026A036AB06BA6C3AFF3AF8F18
:10203000A7C3AEF3A8C3ADF3190EB16FAC51AD5F3A
:102040000DE2010EAE5F0AE2AF5F08E2B05F06E2AA
:10205000B02BAF2BAE2BAC51AD2728D0AB51AE5F20
:1020600012E2010EAF5F0FE2B05F0DE2B02BAF2BBB
:10207000AB51AE27AC51AD2719E3AE2B17E1AF2B17
:1020800015E1B02B13D0AA518009AF5F0EE2010E0B
:10209000B05F0BE2B02BAA518009AF27AB51AE273E
:1020A000E9E3AF2BE7E1B02BE5D70380B12F01D0F7
:1020B0000BD0D890AD37AE37AF37B037D8900336A6
:1020C00002360136B237BAD7B2A106D0D890013263
:1020D00002320332B23302D0000635E0B2BF1ED066
:1020E000D890AD37AE37AF37B037AC51AD5F07E200
:1020F000010EAE5F04E2AF5F02E2B05F1AE3AB51E4
:10210000AE5F05E2010EAF5F02E2B05F12E3AA51DB
:102110008009AF5F03E2010EB05F0BE3032A09E120
:10212000022A07E1012A05E1002A0DE0013202320C
:102130000332A6C3B1F3AA51B11BB1AF02D0018ED5
:1021400006D0019E04D0006A016A026A036A000197
:10215000000C03016E6B6D6B6C6B6B6B000E016E94
:10216000C250C30B0110C26E140E746F0001C5EC97
:1021700002F00301736B73510E087AE3C282C2B29C
:10218000FED7C4CF5BF10101C3CF5AF1C2B2FED773
:102190005BC1A6F35AC1A5F3000116EC0BF003C016
:1021A00010F402C00FF401C00EF400C00DF4D20E02
:1021B0000401146F6F0E136F5F0E126F7B0E116FA1
:1021C000000131EC0BF000C074F301C075F302C0E4
:1021D00076F303C077F3D89203C0A8F302C0A7F345
:1021E00001C0A6F300C0A5F3C30E0301AC6FF50E4A
:1021F000AB6F280EAA6F820EA96F0001ACEC0BF03A
:1022000000C074F301C075F302C076F303C077F326
:1022100003C010F402C00FF401C00EF400C00DF4AE
:102220000401146B136B200E126F820E116F0001EC
:1022300031EC0BF0D8926EC3A8F36DC3A7F36CC357
:10224000A6F36BC3A5F303C0ACF302C0ABF301C0AC
:10225000AAF300C0A9F3ACEC0BF003C06EF302C00C
:102260006DF301C06CF300C06BF30301732B83D7D4
:102270006EC3A8F36DC3A7F36CC3A6F36BC3A5F33A
:10228000AC6BAB6B700EAA6F820EA96F0001B2DE51
:1022900000C074F301C075F302C076F303C077F396
:1022A000D89203C0A8F302C0A7F301C0A6F300C0F0
:1022B000A5F30301AC6BAB6BAA6BA96B0001ACEC93
:1022C0000BF003C072F302C071F301C070F300C0E1
:1022D0006FF36FC300F070C301F071C302F072C3FB
:1022E00003F0B0EF13F0A8EC08F003C0EDF202C069
:1022F000ECF201C0EBF200C0EAF201017BA381D154
:1023000003016C6B6B6B0201F16BF06BEF6BEE6BAF
:102310000001D6EF0AF002C06CF301C06BF3F6EFD8
:102320000AF002C06EF301C06DF36CC37CF36BC3A3
:102330007BF36EC37EF36DC37DF37CC3A6F37BC3D7
:10234000A5F316EC0BF000C083F301C084F302C0C8
:1023500085F303C086F303C010F402C00FF401C07C
:102360000EF400C00DF40A0E0401146FD70E136FA3
:10237000230E126F780E116F000131EC0BF000C0CC
:1023800083F301C084F302C085F303C086F3D882CF
:1023900003C0A8F302C0A7F301C0A6F300C0A5F3D1
:1023A0000301AC6BAB6B200EAA6F840EA96F00010A
:1023B000ACEC0BF003C0F5F202C0F4F201C0F3F292
:1023C00000C0F2F27EC3A6F37DC3A5F316EC0BF0BA
:1023D00003C082F302C081F301C080F300C07FF329
:1023E00082C310F481C30FF480C30EF47FC30DF4D5
:1023F000540E0401146FE30E136F250E126F7A0E44
:10240000116F000131EC0BF000C083F301C084F3C5
:1024100002C085F303C086F382C310F481C30FF4B6
:1024200080C30EF47FC30DF482C314F481C313F48C
:1024300080C312F47FC311F431EC0BF000C087F3BA
:1024400001C088F302C089F303C08AF303C010F40B
:1024500002C00FF401C00EF400C00DF4A20E04017E
:10246000146FE70E136F3B0E126F6C0E116F0001AD
:1024700031EC0BF0D88286C3A8F385C3A7F384C3DD
:10248000A6F383C3A5F303C0ACF302C0ABF301C052
:10249000AAF300C0A9F3ACEC0BF000C083F301C0B9
:1024A00084F302C085F303C086F3D88203C0A8F387
:1024B00002C0A7F301C0A6F300C0A5F30301AC6BF3
:1024C000AB6BAA6B810EA96F0001ACEC0BF003C0E3
:1024D00072F302C071F301C070F300C06FF3D882D1
:1024E000F5C2A8F3F4C2A7F3F3C2A6F3F2C2A5F3B0
:1024F0000301AC6BAB6B480EAA6F830EA96F000192
:10250000ACEC0BF000C083F301C084F302C085F390
:1025100003C086F3AC0E0401106FC50E0F6F270EBB
:102520000E6F710E0D6F82C314F481C313F480C358
:1025300012F47FC311F4000131EC0BF0D8920A0EB3
:102540000301A86FD70EA76F230EA66F780EA56F95
:1025500003C0ACF302C0ABF301C0AAF300C0A9F3FF
:102560000001ACEC0BF086C310F485C30FF484C3F8
:102570000EF483C30DF403C014F402C013F401C0BD
:1025800012F400C011F431EC0BF000C083F301C071
:1025900084F302C085F303C086F3D89203C0A8F386
:1025A00002C0A7F301C0A6F300C0A5F372C3ACF349
:1025B00071C3ABF370C3AAF36FC3A9F3ACEC0BF018
:1025C00003C0F1F202C0F0F201C0EFF200C0EEF27F
:1025D0000000F1C27AF3F0C279F3EFC278F3EEC2F1
:1025E00077F303017E6B7D6B7C6B7B6B0001E8EC0A
:1025F0000CF006E30201F16BF06BEF6BEE6B000188
:1026000001017BA5A9D0766B5C5302E15D5302E02A
:10261000010E766F77510201EA5D0301616F0101DE
:1026200078510201EB590301626F010179510201F6
:10263000EC590301636F01017A510201ED59030165
:10264000646F5DC1A6F35CC1A5F3000116EC0BF04D
:1026500003C010F402C00FF401C00EF400C00DF46A
:102660006DC114F46CC113F46BC112F46AC111F49E
:1026700031EC0BF003C068F302C067F301C066F3EE
:1026800000C065F30301605322E068C3F9F267C339
:10269000F8F266C3F7F265C3F6F264C36EF363C380
:1026A0006DF362C36CF361C36BF3F9C272F3F8C2EA
:1026B00071F3F7C270F3F6C26FF3000182EC0DF014
:1026C00001C0FAF201015D6B5C6B46D003016A6BDD
:1026D000696B64C36EF363C36DF362C36CF361C370
:1026E0006BF368C372F367C371F366C370F365C3BA
:1026F0006FF3000182EC0DF001C0FAF25AEF0FF017
:1027000001015C5103010124696F01015D51030165
:1027100002206A6F6AC3A6F369C3A5F3000116EC31
:102720000BF003C010F402C00FF401C00EF400C09F
:102730000DF46DC114F46CC113F46BC112F46AC1D1
:1027400011F431EC0BF003C0F9F202C0F8F201C051
:10275000F7F200C0F6F201017BA70BD00001F9D41B
:1027600003C0FEF202C0FDF201C0FCF200C0FBF2A9
:102770000101EDC27AF1ECC279F1EBC278F1EAC263
:1027800077F10001000C938A00D0938800D00000FC
:102790008A9A939A00D08A989398A00E0301986F12
:1027A00000016CEC0EF093C396F30301976B93C397
:1027B00098F300016CEC0EF092C398F36CEC0EF001
:1027C00094C398F36CEC0EF0939A0000938881A860
:1027D000FED700D000D00000938A00D0938A00D0AA
:1027E000938800D000008A9A939A00D08A98939890
:1027F000A00E0301986F00016CEC0EF00150030174
:10280000959101B0958195A117D0938A00D09388B6
:1028100000D0000081A8FED78A9A939A00D08A98A7
:102820009398A00E986F00016CEC0EF0015003011C
:10283000959101B09581E7D7939A0000938881A87C
:10284000FED700D000D00000938A00D00001000C19
:102850000201E56BE46BE5C281F3E4C280F30001A1
:10286000C3EC0EF00201E76B01C0E6F2E56B010E6E
:10287000E46FE5C281F3E4C280F30001C3EC0EF023
:1028800003017F6B01C07EF3010E816F806B00013D
:102890005BEC0EF001500201E6270250E723E7C28D
:1028A0007FF3E6C27EF30301816B170E806F000198
:1028B0005BEC0EF00150020F0201E46F000E0220EB
:1028C000E56F020E0301556FEA0E546F566B5651B9
:1028D000160819E354C3E9FF55C3EAFFEFCFE8F246
:1028E0000201E5C293F3E4C292F3E8C294F300015B
:1028F0004ADF0201E42BD8B4E52B0301542BD8B4F2
:10290000552B562BE4D70201E62BD8B4E72BE56B09
:10291000E46BE6C2E8F2E5C293F3E4C292F3E8C2E4
:1029200094F3000130DF0201E56B010EE46FE7C2B2
:10293000E8F2E5C293F3E4C292F3E8C294F3000133
:1029400022DF0201E751020809E2FF0A03E1E65132
:10295000E80804E2010E0101716F0201000107EFB6
:1029600026F004010D51B6080D6F036A0EC411F470
:102970000E8FD8900E330F331033033202320132F0
:1029800000320D2FF6D711AF0BD0001E011E021E14
:10299000031E002AD8B4012AD8B4022AD8B4032AC4
:1029A0000001FFEF14F0E9500401016F0051036FC3
:1029B0001CE0FFC310F4FEC30FF4FDC30EF4FCC310
:1029C0000DF4146B136B200E126F820E116F000149
:1029D00031EC0BF003C0FFF302C0FEF301C0FDF3C6
:1029E00000C0FCF30401032FE4D7FFC310F4FEC3BF
:1029F0000FF4FDC30EF4FCC30DF40001B2D703C005
:102A0000FFF302C0FEF301C0FDF300C0FCF30301BD
:102A1000FFAF0FD004010107018B0301FC1FFD1F55
:102A2000FE1FFF1FFC2BD8B4FD2BD8B4FE2BD8B44F
:102A3000FF2B3B0E0401086F9A0E076FCA0E066F3C
:102A4000056B0A0E036F0051D8B4012BFFC310F4BD
:102A5000FEC30FF4FDC30EF4FCC30DF408C414F45C
:102A600007C413F406C412F405C411F4000125ECE4
:102A70000DF00150EFCFFCF3ECCFFDF3ECCFFEF304
:102A8000ECCFFFF3005213E104010029035DD8A449
:102A900002D000010CD001510DE00F0B035D01E0ED
:102AA00044E201BF42D001BD05D0200E37D0200E38
:102AB0000401011701AB0FD0019B0051D8A40107FD
:102AC0000050016F2D0E0D6F00015FEC06F0040148
:102AD0000151006E016B0051035D0DE10050016F6B
:102AE0002E0E0D6F00015FEC06F004010151006E27
:102AF000200E0117000E300E01AB10D0019B0051CB
:102B0000D8A401070050016F2D0E0D6F00015FEC7E
:102B100006F004010151006E016B300E002600C06A
:102B20000DF400015FEC06F0040108C410F407C4C2
:102B30000FF406C40EF405C40DF4146B136B126B82
:102B40000A0E116F000125EC0DF003C008F402C05D
:102B500007F401C006F400C005F40401032F76D782
:102B60000001000CFFC303F4FEC302F403C403F02E
:102B7000040102C4E9FF03C4EAFFEF5206E0022B9E
:102B8000D8B4032B0001F2D7040101C403F000C440
:102B9000E9FF01C4EAFFEF5213E000C4E9FF01C4FA
:102BA000EAFFEFCF06F403C4EAFF02C4E9FF06C45C
:102BB000EFFF022BD8B4032B002BD8B4012BE5D7A1
:102BC00002C4E9FF03C4EAFFEF6A0301FEC301F098
:102BD000FFC302F00001000CFFC301F4FEC300F4C8
:102BE00001C403F0040100C4E9FF01C4EAFFEF528D
:102BF00005E0002BD8B4012B0001F2D70301FE51F0
:102C00000401005D006E0301FF5104010159036ED0
:102C100000C001F0000112EF16F0FDC3FFF3FCC38A
:102C2000FEF3DAD701520BE0FDC3FFF3FCC3FEF362
:102C3000010E0401016F570E006F000193DF000CBD
:102C4000030E0301FD6F570EFC6F000136EC05F01B
:102C500001017BA361D0020E476FDA0E466F540E5E
:102C600004010D6F00015FEC06F03A0E04010D6FD8
:102C700000015FEC06F0010EE96EF5C2FFF3F4C24D
:102C8000FEF3F3C2FDF3F2C2FCF30401006F000196
:102C90008ADE0201E06B030E0301FF6F570EFE6F29
:102CA000020E0401016FDA0E006F00015BDF030EFC
:102CB0000301FD6F570EFC6F0001AFDF020E010133
:102CC000476FDA0E466F480E04010D6F00015FEC8E
:102CD00006F03A0E04010D6F00015FEC06F0010EE4
:102CE000E96EF1C2FFF3F0C2FEF3EFC2FDF3EEC2F4
:102CF000FCF30401006F000156DE0201E06B030EDD
:102D00000301FF6F570EFE6F020E0401016FDA0E12
:102D1000006F000127DF01017BA562D0030E0301D4
:102D2000FD6F570EFC6F000178DF020E0101476F47
:102D3000DA0E466F4C0E04010D6F00015FEC06F0D9
:102D40003A0E04010D6F00015FEC06F0010EE96E12
:102D5000F9C2FFF3F8C2FEF3F7C2FDF3F6C2FCF3CB
:102D60000401006F00011FDE0201E06B030E03018E
:102D7000FF6F570EFE6F020E0401016FDA0E006F37
:102D80000001F0DE010176532BE0030E0301FD6F1D
:102D9000570EFC6F000141DF020E0101476FDA0E92
:102DA000466F490E04010D6F00015FEC06F03A0E0C
:102DB00004010D6F00015FEC06F0FAC20DF45FEC48
:102DC00006F00201DD6B030E0301FF6F570EFE6F6D
:102DD000020E0401016FDA0E006F0001C3DE010173
:102DE0007BA735D0030E0301FD6F570EFC6F00016A
:102DF00014DF020E0101476FDA0E466F500E040118
:102E00000D6F00015FEC06F03A0E04010D6F00013A
:102E10005FEC06F0030EE96EFEC2FFF3FDC2FEF3A7
:102E2000FCC2FDF3FBC2FCF3010E0401006F0001C4
:102E3000BADD0201E26B030E0301FF6F570EFE6F56
:102E4000020E0401016FDA0E006F00018BDE55C324
:102E5000FDF354C3FCF3000136EC05F003015653B7
:102E600041E00001EDEC06F055C347F154C346F1D3
:102E7000440E04010D6F00015FEC06F07C0E0401AE
:102E80000D6F00015FEC06F0010EEA6E320EE96E86
:102E900064EC09F07C0E04010D6F00015FEC06F09C
:102EA000010EEA6E3C0EE96E64EC09F07C0E040142
:102EB0000D6F00015FEC06F0030EEA6E570EE96E2F
:102EC00064EC09F07C0E04010D6F00015FEC06F06C
:102ED0007FC10DF45FEC06F080C10DF45FEC06F0ED
:102EE0003DD0030155C347F154C346F1520E0401CE
:102EF0000D6F00015FEC06F07C0E04010D6F000108
:102F00005FEC06F0010EEA6E320EE96E64EC09F039
:102F10007C0E04010D6F00015FEC06F0010EEA6EFD
:102F20003C0EE96E64EC09F07C0E04010D6F0001AB
:102F30005FEC06F0030EEA6E570EE96E64EC09F0E2
:102F40007C0E04010D6F00015FEC06F07CC10DF4F6
:102F50005FEC06F07DC10DF45FEC06F0000CEACFEB
:102F60005CF3E9CF5BF3030155AF08D05B8F5BA93E
:102F70005B2B541F551F542BD8B4552B5539F009D2
:102F8000576F5727E20F586F320F5A6F55510F0B7B
:102F9000582758275A27E90F596F59275927543965
:102FA0000F0B59275A2759375A375A1F5A37545136
:102FB0000F0B5A275737070E566F0A0E59075A2715
:102FC000FDE358075927FDE357075827FDE3560748
:102FD0005727FDE3030EEA6E560EE96E070E5B15EA
:102FE0005B9DE9065B1507E15BB9E92A5BB903D094
:102FF000200E006E1CD0E9265A0EE95CD8B45B8D19
:10300000EF50006E08E15BBD06D05BB91ED05BB728
:1030100002D0200E0BD05BAF06D02D0E006EED500F
:103020005B9D5B9F04D05B875B99300E0026EACFE7
:1030300055F3E9CF54F300C00DF400015FEC06F046
:1030400055C3EAFF54C3E9FF0301EE505BADD4D78B
:10305000000165EF26F0010E0301606F000173ECC3
:1030600011F00301556B546B54510408D8A061D37F
:1030700054510B0DF350616B606F180E6025E96EB3
:10308000030E6121EA6EEF52D8B44FD354510B0DA9
:10309000F350616B606F010E6025016E000E6121BF
:1030A000036E0150180FE96E030E0320EA6EEF5015
:1030B000540A00010AE01C0AD8B49DD1040AD8B40D
:1030C00030D31C0AD8B42DD32CD3030154510B0D8B
:1030D000F350616B606F020E6025016E000E61217E
:1030E000036E0150180FE96E030E0320EA6EEFCF56
:1030F00000F0ECCF01F0ECCF02F0ECCF03F003C016
:103100007AF302C079F301C078F300C077F3F5C217
:103110007EF3F4C27DF3F3C27CF3F2C27BF30001D1
:10312000E8EC0CF0D8A08CD0030154510B0DF350F7
:10313000616B606F0A0E6025016E000E6121036EE7
:103140000150180FE96E030E0320EA6EEF2A545166
:103150000B0DF350616B606F0A0E6025016E000E5F
:103160006121036E0150180FE96E030E0320EA6E11
:10317000EF50030863E2010E556F54510B0DF350ED
:10318000616B606F0A0E6025016E000E6121036E97
:103190000150180FE96E030E0320EA6EEF6A00017A
:1031A000EDEC06F0030E0101476F560E466F890ED7
:1031B000E96EF5C2FFF3F4C2FEF3F3C2FDF3F2C20F
:1031C000FCF3060E0401006F0001D3EC14F00301C0
:1031D0005A6B020E0101476F270E466F600EF66EA6
:1031E000020EF76E040E0301606F000150EC09F04F
:1031F000030EEA6E560EE96E64EC09F07C0E0401D3
:103200000D6F00015FEC06F07FC10DF45FEC06F07E
:1032100080C10DF45FEC06F0020E0301616F270E12
:10322000606F010E636F480E626F00018EEC09F053
:1032300001C070F1030155C301F07DD2DAD0000165
:10324000030154510B0DF350616B606F060E602546
:10325000016E000E6121036E0150180FE96E030E1E
:103260000320EA6EEFCF00F0ECCF01F0ECCF02F0DC
:10327000ECCF03F0F5C27AF3F4C279F3F3C278F33A
:10328000F2C277F303C07EF302C07DF301C07CF38A
:1032900000C07BF30001E8EC0CF0D8A097D003014C
:1032A00054510B0DF350616B606F0A0E6025016E77
:1032B000000E6121036E0150180FE96E030E03200A
:1032C000EA6EEF0654510B0DF350616B606F0A0EFE
:1032D0006025016E000E6121036E0150180FE96E2A
:1032E000030E0320EA6EEFCF04F4FF0E0401056F16
:1032F000000147EC05F001BE68D00150030865E20B
:10330000020E0301556F54510B0DF350616B606F4A
:103310000A0E6025016E000E6121036E0150180F28
:10332000E96E030E0320EA6EEF6A0001EDEC06F091
:10333000030E0101476F560E466F890EE96EF5C206
:10334000FFF3F4C2FEF3F3C2FDF3F2C2FCF3060E88
:103350000401006F0001D3EC14F003015A6B020E5C
:103360000101476F270E466F6C0EF66E020EF76E68
:10337000040E0301606F000150EC09F0030EEA6EC9
:10338000560EE96E64EC09F07C0E04010D6F00012D
:103390005FEC06F07FC10DF45FEC06F080C10DF428
:1033A0005FEC06F0020E0301616F270E606F010EE5
:1033B000636F480E626F00018EEC09F001C070F17E
:1033C000030155C301F0B7D1000114D003015451DA
:1033D0000B0DF350616B606F0A0E6025016E000EDD
:1033E0006121036E0150180FE96E030E0320EA6E8F
:1033F000EF6A00019BD1030154510B0DF350616B37
:10340000606F020E6025016E000E6121036E015097
:10341000180FE96E030E0320EA6EEFCF00F0ECCF39
:1034200001F0ECCF02F0ECCF03F003C07AF302C05E
:1034300079F301C078F300C077F3F1C27EF3F0C2F4
:103440007DF3EFC27CF3EEC27BF30001E8EC0CF0FD
:10345000D8A08CD0030154510B0DF350616B606FF9
:103460000A0E6025016E000E6121036E0150180FD7
:10347000E96E030E0320EA6EEF2A54510B0DF35050
:10348000616B606F0A0E6025016E000E6121036E94
:103490000150180FE96E030E0320EA6EEF50030887
:1034A00063E2040E556F54510B0DF350616B606F66
:1034B0000A0E6025016E000E6121036E0150180F87
:1034C000E96E030E0320EA6EEF6A0001EDEC06F0F0
:1034D000030E0101476F560E466F890EE96EF1C269
:1034E000FFF3F0C2FEF3EFC2FDF3EEC2FCF3060EF3
:1034F0000401006F0001D3EC14F003015A6B020EBB
:103500000101476F270E466F780EF66E020EF76EBA
:10351000040E0301606F000150EC09F0030EEA6E27
:10352000560EE96E64EC09F07C0E04010D6F00018B
:103530005FEC06F07FC10DF45FEC06F080C10DF486
:103540005FEC06F0020E0301616F270E606F010E43
:10355000636F480E626F00018EEC09F001C070F1DC
:10356000030155C301F0E7D0DAD000010301545143
:103570000B0DF350616B606F060E6025016E000E3F
:103580006121036E0150180FE96E030E0320EA6EED
:10359000EFCF00F0ECCF01F0ECCF02F0ECCF03F076
:1035A000F1C27AF3F0C279F3EFC278F3EEC277F3A7
:1035B00003C07EF302C07DF301C07CF300C07BF347
:1035C0000001E8EC0CF0D8A097D0030154510B0D8A
:1035D000F350616B606F0A0E6025016E000E612171
:1035E000036E0150180FE96E030E0320EA6EEF061A
:1035F00054510B0DF350616B606F0A0E6025016E24
:10360000000E6121036E0150180FE96E030E0320B6
:10361000EA6EEFCF04F4FF0E0401056F000147ECE2
:1036200005F001BE68D00150030865E2100E0301E9
:10363000556F54510B0DF350616B606F0A0E60258E
:10364000016E000E6121036E0150180FE96E030E2A
:103650000320EA6EEF6A0001EDEC06F0030E0101B3
:10366000476F560E466F890EE96EF1C2FFF3F0C246
:10367000FEF3EFC2FDF3EEC2FCF3060E0401006F91
:103680000001D3EC14F003015A6B020E0101476FE5
:10369000270E466F840EF66E020EF76E040E0301BF
:1036A000606F000150EC09F0030EEA6E560EE96EF1
:1036B00064EC09F07C0E04010D6F00015FEC06F074
:1036C0007FC10DF45FEC06F080C10DF45FEC06F0F5
:1036D000020E0301616F270E606F010E636F480ECB
:1036E000626F00018EEC09F001C070F1030155C357
:1036F00001F021D0000114D0030154510B0DF350FF
:10370000616B606F0A0E6025016E000E6121036E11
:103710000150180FE96E030E0320EA6EEF6A0001F4
:1037200005D0000E016E030106D000010301542BE9
:103730009BD4000E016E00018FEF26F09BC39FF318
:103740009AC39EF39FC303F003019EC3E9FF9FC387
:10375000EAFFEF5230E09DC3A1F39CC3A0F3A1C3E5
:1037600003F0A0C3E9FFA1C3EAFFEF520AE19A51B7
:103770009E5D006E9B519F59036E00C001F023D0E7
:1037800010D09EC3E9FF9FC3EAFFEFCFA2F3A1C30E
:1037900003F0A0C3E9FFA1C3EAFFEF50A25D01E17E
:1037A00004D0A02BD8B4A12BDAD79E2BD8B49F2B52
:1037B0000001C8D703019A519E5D006E9B519F592D
:1037C000036E00C001F000013DEF1CF09BC39FF3AE
:1037D0009AC39EF39FC303F003019EC3E9FF9FC3F7
:1037E000EAFFEF522AE09DC3A1F39CC3A0F3A1C35B
:1037F00003F0A0C3E9FFA1C3EAFFEF5218E09EC3A4
:10380000E9FF9FC3EAFFEFCFA2F3A1C303F0A0C378
:10381000E9FFA1C3EAFFEF50A25D05E19EC301F0FD
:103820009FC302F00DD0A02BD8B4A12BE0D79E2BC4
:10383000D8B49F2B0001CED70301000E016E026E9B
:1038400000015FEF1CF003019251931104E093C358
:1038500003F0925105D01BC103F001011A5103017D
:10386000966F03C097F397C39BF396C39AF395C3E0
:103870009DF394C39CF3000161D701500301962787
:10388000000E972397C303F096C3E9FF97C3EAFF9F
:10389000EF520BE101011AC1E9FF1BC1EAFF200E43
:1038A000EF6E000E016E026E28D097C39BF396C395
:1038B0009AF395C39DF394C39CF3000187D702C08C
:1038C00099F301C098F399C303F0030198C3E9FF8A
:1038D00099C3EAFFEF5208E098C3E9FF99C3EAFFF2
:1038E000EF6A982BD8B4992B99C31BF198C31AF19E
:1038F00096C301F097C302F001010001000C010121
:1039000030510A0834E1010E0301616F61510A0868
:1039100024E3480EF66E020EF76E080E656F000186
:103920006EEC04F061C362F31F0E0301636F0001CC
:1039300099EC04F00D0E9EA8FED7AD6E010E0301AA
:10394000666F200E656F030E686FE80E676F0001EB
:1039500031EC03F00301612BD9D7010E0101306F67
:10396000000178EC03F0010E016E03D00101000E9E
:10397000016E0001AEEF1DF00301566B000178EC03
:1039800003F0880EF66E030EF76E080E0301656FE6
:1039900000016EEC04F030C162F31F0E0301636F8F
:1039A000000199EC04F02C0E9EA8FED7AD6E300EEF
:1039B0009EA8FED7AD6E0D0E9EA8FED7AD6E080E6A
:1039C0000301616FFA0E746F0001C5EC02F0030190
:1039D000612FF8D7010E666F270E656F030E686FB3
:1039E000E80E676F000131EC03F002C062F301C022
:1039F00061F30301615303E16253D8B4B7D0010E00
:103A0000666F480E656F030E686FE80E676F000102
:103A100031EC03F002C058F301C057F303015753D0
:103A200003E15853D8B498D0010EFD6F820EFC6F9D
:103A3000000136EC05F0030EEA6E590EE96EF2CF86
:103A400061F3F29E000E70EC00F00A000900F550E0
:103A5000EE6E0009FBE1030161BFF28E58C393F3E0
:103A600057C392F3030E956F590E946F0001EBDE6E
:103A700002C05CF301C05BF35CC35EF35BC35DF348
:103A80000301936B926B030E956F590E946F0001B7
:103A9000DADE02C05CF301C05BF303015B53D8B410
:103AA00002D00001E9D75C53D8B402D00001E4D7BA
:103AB000030EEA6E590EE96EF2CF61F3F29E000E2C
:103AC00000017EEC00F00A000900F550EE6E0009DE
:103AD000FBE1030161BFF28E936B926B030E956F56
:103AE000590E946F0001AFDE03015D2BD8B45E2B3D
:103AF0005D2BD8B45E2B5F6B5F51A4081FE3036A94
:103B00005F515D25E96E5E510320EA6EEF500D08AE
:103B10000AE0036A5F515D25E96E5E510320EA6E9B
:103B2000EF500A0809E1036A5F515D25E96E5E51B5
:103B30000320EA6EEF6A02D05F2BDED755C3EAFF9F
:103B400054C3E9FF5EC3E2FF5DC3E1FFE752E6CF86
:103B5000EEFFFCE130C156F30001D1D601C060F3A5
:103B60000301605303E10101302B0301036A56C3D3
:103B700001F003C002F0000120EF27F0030193677A
:103B800003D0946702D007D0942B92C3EEFF932FFB
:103B9000FCD7942FFAD70001DEEF1FF0030192C388
:103BA000E9FF93C3EAFFEFCF96F395C303F094C305
:103BB000E9FF95C3EAFFEF50965D15E193C303F06B
:103BC00092C3E9FF03C0EAFFEF5203E1000E016E6A
:103BD0001FD093C303F09251922BD8B4932B942B04
:103BE000D8B4952BDCD793C303F092C3E9FF93C3FA
:103BF000EAFFEFCF96F395C303F094C3E9FF95C3B3
:103C0000EAFFEF50965D02E2FF0E01D0010E016E59
:103C10000001000C0301996B986B976B7F0E966FF8
:103C20009D6B9C6B9B6B9A6B9E819E939E95A06BEC
:103C30009251931105E1006A016A026A036A1AD17E
:103C4000A051A02B036A9225E96E93510320EA6EDE
:103C5000EFCF9FF39F53D8B4CED09EA10FD09F51EA
:103C600020080CE09E919F512B0803E19E93B6D053
:103C700005D09F512D0802E19E83B0D09EB107D0A0
:103C80009F512E0804E19EB502D09E85A7D09EB11B
:103C9000A2D09F512F08D8B09ED09F513908D8A0EC
:103CA0009AD0300E9F5F9EA558D099C310F498C348
:103CB0000FF497C30EF496C30DF40401146B136B49
:103CC000200E126F820E116F000131EC0BF003C059
:103CD00099F302C098F301C097F300C096F3030173
:103CE000A66B9FC3A5F3000116EC0BF000C0A1F377
:103CF00001C0A2F302C0A3F303C0A4F303C0A8F35E
:103D000002C0A7F301C0A6F300C0A5F399C3ACF3AA
:103D100098C3ABF397C3AAF396C3A9F3FAEC0FF0D9
:103D2000D8929DC3A8F39CC3A7F39BC3A6F39AC3E1
:103D3000A5F303C0ACF302C0ABF301C0AAF300C00B
:103D4000A9F3ACEC0BF003C09DF302C09CF301C0DF
:103D50009BF300C09AF33DD003010401106B0F6B7D
:103D6000200E0E6F820E0D6F9DC314F49CC313F4CE
:103D70009BC312F49AC311F4000131EC0BF000C0A4
:103D8000A1F301C0A2F302C0A3F303C0A4F3030193
:103D9000A66B9FC3A5F3000116EC0BF0D892A4C349
:103DA000A8F3A3C3A7F3A2C3A6F3A1C3A5F303C0BB
:103DB000ACF302C0ABF301C0AAF300C0A9F3ACECB2
:103DC0000BF003C09DF302C09CF301C09BF300C045
:103DD0009AF305D003019EB101D00DD0000103017B
:103DE000A051A02B036A9225E96E93510320EA6E3D
:103DF000EFCF9FF32FD79EA31BD00401106B0F6B47
:103E0000800E0E6F7F0E0D6F9DC314F49CC313F4D0
:103E10009BC312F49AC311F4000131EC0BF003C000
:103E20009DF302C09CF301C09BF300C09AF3030111
:103E30009451951117E0A0530CE0A00794C3E9FF3B
:103E400095C3EAFFA0519225EF6E000E9321EC6E10
:103E500009D094C3E9FF95C3EAFF93C3ECFFED5289
:103E600092C3EFFF9AC300F09BC301F09CC302F022
:103E70009DC303F00001000C98C306F40A0E040170
:103E8000076F000183EC04F001C099F3030199511D
:103E90000A0DF350985D9A6F9939006EF00E001676
:103EA00000509A11016E0001000C92C398F3E4DFF8
:103EB00001C098F3860E0301996F01C09AF30001C7
:103EC00035EC02F093C398F3D7DF01C098F3880E66
:103ED0000301996F01C09AF3000135EC02F094C31D
:103EE00098F3CADF01C098F38C0E0301996F01C0EB
:103EF0009AF3000135EC02F095C398F3BDDF01C0E1
:103F000098F38A0E0301996F01C09AF3000135EC12
:103F100002F096C398F3B0DF01C098F3840E03015A
:103F2000996F01C09AF3000135EC02F097C398F342
:103F3000A3DF01C098F3820E0301996F01C09AF3C9
:103F4000000135EC02F00301986B000195DF01C020
:103F500098F3800E0301996F01C09AF3000135ECCC
:103F600002F0B7EF23F00201E76BE66B0101716B22
:103F70000201E56BE46BE5C293F3E4C292F3030143
:103F8000946B0001C3EC13F00201E56B010EE46FCA
:103F9000E5C293F3E4C292F30301946B0001C3EC16
:103FA00013F0DFEF23F0030EEA6E560EE96E030105
:103FB000926B946B1E0E936F0001E0D5030EEA6EB8
:103FC000560EE96E55C3E2FF54C3E1FFE752E6CF58
:103FD000EEFFFCE1030EEA6E7C0EE96EF2CF92F387
:103FE000F29E000E8CEC00F00A000900F550EE6E17
:103FF0000009FBE1030192BFF28E030E936F560E90
:10400000926F030E956F7C0E946F00011CDC02C052
:104010007FF301C07EF3030EEA6E740EE96EF2CFF9
:1040200092F3F29E000E9AEC00F00A000900F5509F
:10403000EE6E0009FBE1030192BFF28E7FC393F3A2
:104040007EC392F3030E956F740E946F0001A6DD8C
:104050000152D8A4A1D10301936B926B030E956F0B
:104060007C0E946F000123EC1CF002C07FF301C0B2
:104070007EF303017E5302E17F5307E07EC3E9FF35
:104080007FC3EAFFEFCF87F304D0F00E016EA6EFF7
:1040900024F0936B926B030E956F7C0E946F00016E
:1040A00023EC1CF002C07FF301C07EF303017E53BA
:1040B00002E17F5312E07FC393F37EC392F3956BCB
:1040C000946B0001A7DD03C08DF302C08CF301C027
:1040D0008BF300C08AF305D00301F00E016EA6EF4A
:1040E00024F00301936B926B030E956F7C0E946F1B
:1040F000000123EC1CF002C07FF301C07EF303013A
:104100007E5302E17F5312E07FC393F37EC392F3A9
:10411000956B946B00017EDD03C091F302C090F3B8
:1041200001C08FF300C08EF305D00301F00E016EC5
:10413000A6EF24F00301936B926B030E956F7C0E38
:10414000946F000123EC1CF002C07FF301C07EF3EA
:1041500003017E5302E17F530DE0010EEA6E7C0EF7
:10416000E96E7FC3E2FF7EC3E1FFE752E6CFEEFFD9
:10417000FCE104D0F00E016EA6EF24F0896B886B91
:1041800088510408D8A07DD088510B0DF350936B53
:10419000926F010E9225016E000E9321036E015065
:1041A000180FE96E030E0320EA6E8751EF5C67E19A
:1041B00088510B0DF350936B926F180E9225E96E98
:1041C000030E9321EA6E010EEF6E88510B0DF35032
:1041D000936B926F010E9225016E000E9321036E78
:1041E0000150180FE96E030E0320EA6E87C3EFFF3C
:1041F00088510B0DF350936B926F020E9225016E56
:10420000000E9321036E0150180FE96E030E032078
:10421000EA6E8AC3EFFF8BC3ECFF8CC3ECFF8DC348
:10422000ECFF88510B0DF350936B926F060E9225A5
:10423000016E000E9321036E0150180FE96E030EFC
:104240000320EA6E8EC3EFFF8FC3ECFF90C3ECFF39
:1042500091C3ECFF88510B0DF350936B926F0A0ED4
:104260009225016E000E9321036E0150180FE96E26
:10427000030E0320EA6EEF6A010E896F02D0882BCD
:104280007FD78953D8A47BD0886B8851040876E304
:1042900088510B0DF350936B926F180E9225E96EB7
:1042A000030E9321EA6EEF5267E188510B0DF35034
:1042B000936B926F180E9225E96E030E9321EA6EAE
:1042C000010EEF6E88510B0DF350936B926F010E40
:1042D0009225016E000E9321036E0150180FE96EB6
:1042E000030E0320EA6E87C3EFFF88510B0DF350D6
:1042F000936B926F020E9225016E000E9321036E56
:104300000150180FE96E030E0320EA6E8AC3EFFF17
:104310008BC3ECFF8CC3ECFF8DC3ECFF88510B0DFE
:10432000F350936B926F060E9225016E000E93214F
:10433000036E0150180FE96E030E0320EA6E8EC360
:10434000EFFF8FC3ECFF90C3ECFF91C3ECFF8851EC
:104350000B0DF350936B926F0A0E9225016E000EB7
:104360009321036E0150180FE96E030E0320EA6ECD
:10437000EF6A010E896F02D0882B87D703D0020E17
:10438000016EE4D2895303E1F00E016EDFD2020E1A
:10439000016EDCD2DBD20001030EEA6E740EE96E10
:1043A000F2CF92F3F29E000EA9EC00F00A00090091
:1043B000F550EE6E0009FBE1030192BFF28E7FC360
:1043C00093F37EC392F3030E956F740E946F000106
:1043D000CEEC1DF00152D8A485D00301936B926BF3
:1043E000030E956F7C0E946F000123EC1CF002C04D
:1043F0007FF301C07EF303017E5302E17F5307E0A8
:104400007EC3E9FF7FC3EAFFEFCF87F303D0F00E4F
:10441000016E9CD2936B926B030E956F7C0E946F22
:10442000000123EC1CF002C07FF301C07EF3030106
:104430007E5302E17F530DE0010EEA6E7C0EE96EC1
:104440007FC3E2FF7EC3E1FFE752E6CFEEFFFCE170
:1044500003D0F00E016E7AD2896B886B8851040804
:1044600037E388510B0DF350936B926F010E922539
:10447000016E000E9321036E0150180FE96E030EBA
:104480000320EA6E8751EF5C21E188510B0DF35058
:10449000936B926F180E9225E96E030E9321EA6ECC
:1044A000EF6A88510B0DF350936B926F0A0E9225B1
:1044B000016E000E9321036E0150180FE96E030E7A
:1044C0000320EA6EEF6A010E896F02D0882BC6D7EF
:1044D000895303E1F00E016E39D2030E016E36D21C
:1044E00035D20001030EEA6E740EE96EF2CF92F33C
:1044F000F29E000EB8EC00F00A000900F550EE6ED6
:104500000009FBE1030192BFF28E7FC393F37EC3E8
:1045100092F3030E956F740E946F0001CEEC1DF0B4
:10452000015228E10301936B926B030E956F7C0E91
:10453000946F000123EC1CF002C07FF301C07EF3F6
:1045400003017E5302E17F530DE0010EEA6E7C0E03
:10455000E96E7FC3E2FF7EC3E1FFE752E6CFEEFFE5
:10456000FCE103D0F00E016EF1D1010E016EEED12F
:10457000EDD10001030EEA6E740EE96EF2CF92F3F4
:10458000F29E000EC8EC00F00A000900F550EE6E35
:104590000009FBE1030192BFF28E7FC393F37EC358
:1045A00092F3030E956F740E946F0001CEEC1DF024
:1045B0000152D8A4E2D00301936B926B030E956F66
:1045C0007C0E946F000123EC1CF002C07FF301C04D
:1045D0007EF303017E5302E17F530BE07FC3FEF3C2
:1045E0007EC3FDF300016EEC05F001C082F304D040
:1045F0000301F00E016EAAD10301936B926B030EBF
:10460000956F7C0E946F000123EC1CF002C07FF3C9
:1046100001C07EF303017E5302E17F530BE07FC3B1
:10462000FEF37EC3FDF300016EEC05F001C083F3E1
:1046300004D00301F00E016E89D10301936B926BDC
:10464000030E956F7C0E946F000123EC1CF002C0EA
:104650007FF301C07EF303017E5302E17F530BE041
:104660007FC3FEF37EC3FDF300016EEC05F001C0D5
:1046700084F304D00301F00E016E68D10301936B43
:10468000926B030E956F7C0E946F000123EC1CF06F
:1046900002C07FF301C07EF303017E5302E17F532A
:1046A0000BE07FC3FEF37EC3FDF300016EEC05F06B
:1046B00001C085F304D00301F00E016E47D1030160
:1046C000936B926B030E956F7C0E946F000123EC3D
:1046D0001CF002C07FF301C07EF303017E5302E1B0
:1046E0007F5310E0020E7E25926F000E7F21936FA4
:1046F000FE6F92C3FDF300016EEC05F001C086F37E
:1047000004D00301F00E016E21D10301936B926B73
:10471000030E956F7C0E946F000123EC1CF002C019
:104720007FF301C07EF303017E5302E17F530DE06E
:10473000010EEA6E7C0EE96E7FC3E2FF7EC3E1FFED
:10474000E752E6CFEEFFFCE103D0F00E016EFED0A3
:1047500084C392F385C393F386C394F3010E956FDC
:1047600082C396F383C397F3000155EF1FF0050E44
:10477000016E0301EBD0EAD00001030EEA6E740E65
:10478000E96EF2CF92F3F29E000ED9EC00F00A002F
:104790000900F550EE6E0009FBE1030192BFF28EB5
:1047A0007FC393F37EC392F3030E956F740E946FE1
:1047B0000001CEEC1DF0015226E1B3EF1FF0030122
:1047C000936B926B030E956F7C0E946F000123EC3C
:1047D0001CF002C07FF301C07EF303017E5302E1AF
:1047E0007F530CE0010EEA6E7C0EE96E7FC3E2FFA0
:1047F0007EC3E1FFE752E6CFEEFFFCE1040E016E5F
:10480000A5D0A4D00001030EEA6E740EE96EF2CFBB
:1048100092F3F29E000EEAEC00F00A000900F55057
:10482000EE6E0009FBE1030192BFF28E020EEA6E0A
:10483000CC0EE96E010EE26E480EE16EE752E6CF55
:10484000EEFFFCE17FC393F37EC392F3030E956FFB
:10485000740E946F0001CEEC1DF0015255E103017E
:10486000936B926B030E956F7C0E946F000123EC9B
:104870001CF002C07FF301C07EF303017E5302E10E
:104880007F5305E07FC381F37EC380F303D0F00E36
:10489000016E5CD0886B88510D0805E3802BD8B47D
:1048A000812B882BF8D7886B88510D080AE3036A9F
:1048B0008851480FE96E010E0320EA6EEF6A882BDB
:1048C000F3D7936B926B030E956F7C0E946F000180
:1048D00023EC1CF002C07FF301C07EF303017E5382
:1048E00002E17F530CE0010EEA6E7C0EE96E7FC39D
:1048F000E2FF7EC3E1FFE752E6CFEEFFFCE1060EEA
:10490000016E24D023D000010301936B926B030E40
:10491000956F7C0E946F000123EC1CF002C07FF3B6
:1049200001C07EF303017E5302E17F530CE0010ED0
:10493000EA6E7C0EE96E7FC3E2FF7EC3E1FFE752C1
:10494000E6CFEEFFFCE1F00E016E00D0000131EF8A
:1049500027F0015054C306F4640E0401076F0001F0
:1049600083EC04F000C054F30150300E08E1030161
:1049700055A30FD055B70DD055B9200E04D0030163
:10498000559755995581012601C00DF400015FEC42
:1049900006F054C306F40A0E0401076F000183EC0D
:1049A00004F000C054F30150300E08E1030155B784
:1049B0000BD055A109D055B9200E0001012601C028
:1049C0000DF45FEC06F00301300E542754C30DF4D0
:1049D00000015FEC06F0000C030E0301576F180E88
:1049E000566F556B320E546F586B5851360808E3AA
:1049F000562BD8B4572B542BD8B4552B582BF5D74E
:104A000000018FEF27F0F86AD09E078EEA6AE96A04
:104A1000B8960C0EAF6EA20EAC6E900EAB6E01018E
:104A2000176BC150C00B0F09C16E070EB46E166A2A
:104A30001A6B1B6B4F0E206F4B0E216F226B520EA9
:104A4000236F440E246F590E256F266B550E276F6A
:104A50004E0E286F520E296F450E2A6F410E2B6F96
:104A6000440E2C6F2D6B3E0E2E6F2F6B466B476BDB
:104A70002B0E486F350E496F340E4A6F390E4B6F4F
:104A8000330E4C6F340E4D6F310E4E6F360E4F6F2E
:104A9000350E506F320E516F370E526F310E536F0D
:104AA000300E546F350E556F566B2A0E576F586B7C
:104AB000F29CF29EF2BEFDD79D9AF098F30E926E94
:104AC000F70E936E810E946ED180D36AD350F19E0F
:104AD000C050C00B0709C06EC08EC280C150C00B51
:104AE0000E09C16E840ED56EB16A81B003D0F18813
:104AF000599102D0F1985981010E6E6F306F020109
:104B0000E56BE46BAA0EE86FE96B01015B6B5A6B16
:104B10007A6B796B786B776B5FC161F15EC160F125
:104B200067C165F166C164F1AE0E6D6F470E6C6FC3
:104B3000610E6B6F7D0E6A6F170E696F700E686F76
:104B400003014F6B4F510D0802E34F2BFBD70201BE
:104B5000E76BE66B00010AEF02F001015991716BFE
:104B6000736B746B756B5D6B5C6B726B766BF28ADF
:104B7000F0889D8AF294F092C00EF212000166EF66
:104B800002F0DDEF02F0E5EF02F0020E0301546FD8
:104B9000FA0E746F0001C5EC02F00301542FF8D730
:104BA000020E546FFA0E746F0001C5EC02F003019F
:104BB000542FF8D70001BBEC03F08B0E0301546FA8
:104BC000B00E746F0001C5EC02F00301542FF8D74A
:104BD000746B0001C5EC02F009EF05F0010E030152
:104BE000FD6F820EFC6F000136EC05F0DBEF09F083
:104BF00004000101735325E0715323E1736B010E2F
:104C00000301606F000173EC11F028EF14F0020E45
:104C10000301556F270E546F010E566F000120ECF3
:104C200016F0020E0301616F270E606F010E636FB5
:104C3000480E626F00018EEC09F001C070F164D083
:104C40000101715361E072535FE10001A8EC08F0CB
:104C5000EDEC06F0020E0301FD6F270EFC6F000164
:104C600036EC05F0020E0101476F270E466FA40EC9
:104C7000F66E030EF76E040E0301606F000150EC38
:104C800009F0010EEA6E320EE96E64EC09F07C0E5A
:104C900004010D6F00015FEC06F0010EEA6E3C0EA0
:104CA000E96E64EC09F0AD0EF66E030EF76E090EB8
:104CB0000301606F000150EC09F0100EE96EE7C2CD
:104CC00055F3E6C254F3AFEF17F07C0E04010D6FFD
:104CD00000015FEC06F07FC10DF45FEC06F080C1CF
:104CE0000DF45FEC06F0020E0301616F270E606F9A
:104CF000010E636F480E626F00018EEC09F001C077
:104D000070F1010E0101726F010174537BE000012B
:104D1000A8EC08F00101746B00012BEF18F053C3ED
:104D20007AF352C379F351C378F350C377F3030195
:104D30007E6B7D6B7C6B7B6B0001E8EC0CF061E0C3
:104D4000EDEC06F0020E0301FD6F270EFC6F000173
:104D500036EC05F0020E0101476F270E466FC00EBC
:104D6000F66E030EF76E040E0301606F000150EC47
:104D700009F0010EEA6E320EE96E64EC09F07C0E69
:104D800004010D6F00015FEC06F0010EEA6E3C0EAF
:104D9000E96E64EC09F0C90EF66E030EF76E060EAE
:104DA0000301606F000150EC09F0410EE96E53C33E
:104DB000FFF352C3FEF351C3FDF350C3FCF3010EE6
:104DC0000401006F0001D3EC14F07C0E04010D6FA0
:104DD00000015FEC06F07FC10DF45FEC06F080C1CE
:104DE0000DF45FEC06F0020E0301616F270E606F99
:104DF000010E636F480E626F00018EEC09F001C076
:104E000070F10101755314E00001BBEC03F08B0E4F
:104E10000301546FB00E746F0001C5EC02F0030182
:104E2000542FF8D7746B0001C5EC02F00101756BCB
:104E3000010E0301556F820E546F0001BCEF1CF090
:104E400002C063F101C062F1010162516311D8B483
:104E50003ED1010E0301556F820E546F0001D3EF56
:104E60001FF001C06FF1020E0301FD6F270EFC6FF2
:104E7000000136EC05F001016F51040A000110E059
:104E8000010A0EE0070A4AE0010A48E0050AD8B420
:104E900084D0070AD8B4BFD0F10AD8B4D9D0D8D0BA
:104EA000020E0101476F270E466FDC0EF66E030EF1
:104EB000F76E040E0301606F000150EC09F0010E63
:104EC0000301546F300E04010D6F00015FEC06F01A
:104ED0000301542FF7D76FC154F3030E556F000130
:104EE00038DD7C0E04010D6F00015FEC06F07CC123
:104EF0000DF45FEC06F07DC10DF45FEC06F0020EE0
:104F00000301616F270E606F010E636F480E626FC1
:104F100000018EEC09F001C070F1D8D05DD5020E11
:104F20000101476F270E466FEA0EF66E030EF76E0D
:104F3000040E0301606F000150EC09F0010E030143
:104F4000546F300E04010D6F00015FEC06F0030199
:104F5000542FF7D76FC154F3030E556F0001F9DCDE
:104F60007C0E04010D6F00015FEC06F07CC10DF4B6
:104F70005FEC06F07DC10DF45FEC06F0020E03015C
:104F8000616F270E606F010E636F480E626F000144
:104F90008EEC09F001C070F199D0020E0101476F4B
:104FA000270E466FF80EF66E030EF76E040E030121
:104FB000606F000150EC09F0010E0301546F300ED8
:104FC00004010D6F00015FEC06F00301542FF7D7C9
:104FD0006FC154F3030E556F0001BBDC7C0E04015E
:104FE0000D6F00015FEC06F07CC10DF45FEC06F084
:104FF0007DC10DF45FEC06F0020E0301616F270E18
:10500000606F020E636FCC0E626F00018EEC09F0D0
:1050100001C070F15BD00301606B000173EC11F013
:10502000020E0301556F270E546F566B000120ECE2
:1050300016F0020E0301616F270E606F010E636FA1
:10504000480E626F00018EEC09F001C070F13ED095
:10505000020E0101476F270E466F060EF66E040E14
:10506000F76E040E0301606F000150EC09F0010EB1
:105070000301546F300E04010D6F00015FEC06F068
:105080000301542FF7D76FC154F3030E556F00017E
:1050900060DC7C0E04010D6F00015FEC06F07CC14A
:1050A0000DF45FEC06F07DC10DF45FEC06F0020E2E
:1050B0000301616F270E606F010E636F480E626F10
:1050C00000018EEC09F001C070F100D001016E53B7
:0A50D000D8B402D000018CD5FFD740
:0200000400F00A
:060000000F00CC06DC0538
:1000320000000000000000000000000000000000BE
:1000420000000000000000000000000000000000AE
:10005200000000000000000000000000000000009E
:08006200000000000000000096
:020000040030CA
:0E00000000C2190E008700000FC00FE00F4075
:00000001FF
;PIC18F4610
;CRC=A3FE  CREATED="19-jun-13 01:48"
